{
    "contractName": "FactoryContact",
    "abi": [
        {
            "anonymous": false,
            "inputs": [
                {
                    "indexed": false,
                    "internalType": "address",
                    "name": "newContract",
                    "type": "address"
                },
                {
                    "indexed": false,
                    "internalType": "uint256",
                    "name": "timestamp",
                    "type": "uint256"
                }
            ],
            "name": "ContractCreated",
            "type": "event"
        },
        {
            "inputs": [
                {
                    "internalType": "uint256",
                    "name": "",
                    "type": "uint256"
                }
            ],
            "name": "deployedContracts",
            "outputs": [
                {
                    "internalType": "contract StudentNestedContract",
                    "name": "",
                    "type": "address"
                }
            ],
            "stateMutability": "view",
            "type": "function"
        },
        {
            "inputs": [],
            "name": "createContract",
            "outputs": [],
            "stateMutability": "nonpayable",
            "type": "function"
        },
        {
            "inputs": [],
            "name": "getDeployedContracts",
            "outputs": [
                {
                    "internalType": "contract StudentNestedContract[]",
                    "name": "",
                    "type": "address[]"
                }
            ],
            "stateMutability": "view",
            "type": "function"
        }
    ],
    "bytecode": "0x608060405234801561000f575f80fd5b50611aa48061001d5f395ff3fe608060405234801561000f575f80fd5b506004361061003f575f3560e01c8063412a5a6d146100435780639ad1ee101461004d578063aa9a068f1461007d575b5f80fd5b61004b61009b565b005b61006760048036038101906100629190610267565b61015f565b604051610074919061030c565b60405180910390f35b610085610199565b60405161009291906103dc565b60405180910390f35b5f6040516100a890610223565b604051809103905ff0801580156100c1573d5f803e3d5ffd5b5090505f81908060018154018082558091505060019003905f5260205f20015f9091909190916101000a81548173ffffffffffffffffffffffffffffffffffffffff021916908373ffffffffffffffffffffffffffffffffffffffff1602179055507f1dc05c1d6a563dddb6c22082af72b54ec2f0207ceb55db5d13cdabc208f303a9814260405161015492919061042b565b60405180910390a150565b5f818154811061016d575f80fd5b905f5260205f20015f915054906101000a900473ffffffffffffffffffffffffffffffffffffffff1681565b60605f80548060200260200160405190810160405280929190818152602001828054801561021957602002820191905f5260205f20905b815f9054906101000a900473ffffffffffffffffffffffffffffffffffffffff1673ffffffffffffffffffffffffffffffffffffffff16815260200190600101908083116101d0575b5050505050905090565b61161c8061045383390190565b5f80fd5b5f819050919050565b61024681610234565b8114610250575f80fd5b50565b5f813590506102618161023d565b92915050565b5f6020828403121561027c5761027b610230565b5b5f61028984828501610253565b91505092915050565b5f73ffffffffffffffffffffffffffffffffffffffff82169050919050565b5f819050919050565b5f6102d46102cf6102ca84610292565b6102b1565b610292565b9050919050565b5f6102e5826102ba565b9050919050565b5f6102f6826102db565b9050919050565b610306816102ec565b82525050565b5f60208201905061031f5f8301846102fd565b92915050565b5f81519050919050565b5f82825260208201905092915050565b5f819050602082019050919050565b610357816102ec565b82525050565b5f610368838361034e565b60208301905092915050565b5f602082019050919050565b5f61038a82610325565b610394818561032f565b935061039f8361033f565b805f5b838110156103cf5781516103b6888261035d565b97506103c183610374565b9250506001810190506103a2565b5085935050505092915050565b5f6020820190508181035f8301526103f48184610380565b905092915050565b5f61040682610292565b9050919050565b610416816103fc565b82525050565b61042581610234565b82525050565b5f60408201905061043e5f83018561040d565b61044b602083018461041c565b939250505056fe608060405234801561000f575f80fd5b506115ff8061001d5f395ff3fe608060405234801561000f575f80fd5b5060043610610055575f3560e01c806386af459b1461005957806398f7940214610089578063a391da9a146100bd578063b0812040146100d9578063c4dc356e146100f7575b5f80fd5b610073600480360381019061006e9190610b3b565b610127565b6040516100809190610d39565b60405180910390f35b6100a3600480360381019061009e9190610b3b565b610345565b6040516100b4959493929190610e0c565b60405180910390f35b6100d760048036038101906100d29190610fba565b6104c4565b005b6100e16106e6565b6040516100ee91906111c4565b60405180910390f35b610111600480360381019061010c9190610b3b565b6108d5565b60405161011e9190610d39565b60405180910390f35b61012f610a94565b5f5b5f8054905081101561033e57825f8281548110610151576101506111e4565b5b905f5260205f2090600702015f01540361032b575f8181548110610178576101776111e4565b5b905f5260205f2090600702016040518060a00160405290815f82015481526020016001820180546101a89061123e565b80601f01602080910402602001604051908101604052809291908181526020018280546101d49061123e565b801561021f5780601f106101f65761010080835404028352916020019161021f565b820191905f5260205f20905b81548152906001019060200180831161020257829003601f168201915b5050505050815260200160028201548152602001600382015f9054906101000a900460ff16600181111561025657610255610bff565b5b600181111561026857610267610bff565b5b8152602001600482016040518060600160405290815f82015481526020016001820180546102959061123e565b80601f01602080910402602001604051908101604052809291908181526020018280546102c19061123e565b801561030c5780601f106102e35761010080835404028352916020019161030c565b820191905f5260205f20905b8154815290600101906020018083116102ef57829003601f168201915b5050505050815260200160028201548152505081525050915050610340565b80806103369061129b565b915050610131565b505b919050565b5f8181548110610353575f80fd5b905f5260205f2090600702015f91509050805f0154908060010180546103789061123e565b80601f01602080910402602001604051908101604052809291908181526020018280546103a49061123e565b80156103ef5780601f106103c6576101008083540402835291602001916103ef565b820191905f5260205f20905b8154815290600101906020018083116103d257829003601f168201915b505050505090806002015490806003015f9054906101000a900460ff1690806004016040518060600160405290815f82015481526020016001820180546104359061123e565b80601f01602080910402602001604051908101604052809291908181526020018280546104619061123e565b80156104ac5780601f10610483576101008083540402835291602001916104ac565b820191905f5260205f20905b81548152906001019060200180831161048f57829003601f168201915b50505050508152602001600282015481525050905085565b6104cc610ad8565b87815f018181525050868160200181905250858160400181815250506104f0610a94565b85815f01818152505084816020018190525083816040018181525050828160600190600181111561052457610523610bff565b5b9081600181111561053857610537610bff565b5b815250508181608001819052505f81908060018154018082558091505060019003905f5260205f2090600702015f909190919091505f820151815f0155602082015181600101908161058a919061147f565b50604082015181600201556060820151816003015f6101000a81548160ff021916908360018111156105bf576105be610bff565b5b02179055506080820151816004015f820151815f015560208201518160010190816105ea919061147f565b5060408201518160020155505050508060015f8881526020019081526020015f205f820151815f01556020820151816001019081610628919061147f565b50604082015181600201556060820151816003015f6101000a81548160ff0219169083600181111561065d5761065c610bff565b5b02179055506080820151816004015f820151815f01556020820151816001019081610688919061147f565b506040820151816002015550509050507f5033ccd442b84f3f27302e5279baf7bba48e90e89f85fbf567a3f4ff86cff017898989898989896040516106d3979695949392919061154e565b60405180910390a1505050505050505050565b60605f805480602002602001604051908101604052809291908181526020015f905b828210156108cc578382905f5260205f2090600702016040518060a00160405290815f82015481526020016001820180546107429061123e565b80601f016020809104026020016040519081016040528092919081815260200182805461076e9061123e565b80156107b95780601f10610790576101008083540402835291602001916107b9565b820191905f5260205f20905b81548152906001019060200180831161079c57829003601f168201915b5050505050815260200160028201548152602001600382015f9054906101000a900460ff1660018111156107f0576107ef610bff565b5b600181111561080257610801610bff565b5b8152602001600482016040518060600160405290815f820154815260200160018201805461082f9061123e565b80601f016020809104026020016040519081016040528092919081815260200182805461085b9061123e565b80156108a65780601f1061087d576101008083540402835291602001916108a6565b820191905f5260205f20905b81548152906001019060200180831161088957829003601f168201915b505050505081526020016002820154815250508152505081526020019060010190610708565b50505050905090565b6108dd610a94565b60015f8381526020019081526020015f206040518060a00160405290815f82015481526020016001820180546109129061123e565b80601f016020809104026020016040519081016040528092919081815260200182805461093e9061123e565b80156109895780601f1061096057610100808354040283529160200191610989565b820191905f5260205f20905b81548152906001019060200180831161096c57829003601f168201915b5050505050815260200160028201548152602001600382015f9054906101000a900460ff1660018111156109c0576109bf610bff565b5b60018111156109d2576109d1610bff565b5b8152602001600482016040518060600160405290815f82015481526020016001820180546109ff9061123e565b80601f0160208091040260200160405190810160405280929190818152602001828054610a2b9061123e565b8015610a765780601f10610a4d57610100808354040283529160200191610a76565b820191905f5260205f20905b815481529060010190602001808311610a5957829003601f168201915b50505050508152602001600282015481525050815250509050919050565b6040518060a001604052805f8152602001606081526020015f81526020015f6001811115610ac557610ac4610bff565b5b8152602001610ad2610ad8565b81525090565b60405180606001604052805f8152602001606081526020015f81525090565b5f604051905090565b5f80fd5b5f80fd5b5f819050919050565b610b1a81610b08565b8114610b24575f80fd5b50565b5f81359050610b3581610b11565b92915050565b5f60208284031215610b5057610b4f610b00565b5b5f610b5d84828501610b27565b91505092915050565b610b6f81610b08565b82525050565b5f81519050919050565b5f82825260208201905092915050565b5f5b83811015610bac578082015181840152602081019050610b91565b5f8484015250505050565b5f601f19601f8301169050919050565b5f610bd182610b75565b610bdb8185610b7f565b9350610beb818560208601610b8f565b610bf481610bb7565b840191505092915050565b7f4e487b71000000000000000000000000000000000000000000000000000000005f52602160045260245ffd5b60028110610c3d57610c3c610bff565b5b50565b5f819050610c4d82610c2c565b919050565b5f610c5c82610c40565b9050919050565b610c6c81610c52565b82525050565b5f606083015f830151610c875f860182610b66565b5060208301518482036020860152610c9f8282610bc7565b9150506040830151610cb46040860182610b66565b508091505092915050565b5f60a083015f830151610cd45f860182610b66565b5060208301518482036020860152610cec8282610bc7565b9150506040830151610d016040860182610b66565b506060830151610d146060860182610c63565b5060808301518482036080860152610d2c8282610c72565b9150508091505092915050565b5f6020820190508181035f830152610d518184610cbf565b905092915050565b610d6281610b08565b82525050565b5f82825260208201905092915050565b5f610d8282610b75565b610d8c8185610d68565b9350610d9c818560208601610b8f565b610da581610bb7565b840191505092915050565b610db981610c52565b82525050565b5f606083015f830151610dd45f860182610b66565b5060208301518482036020860152610dec8282610bc7565b9150506040830151610e016040860182610b66565b508091505092915050565b5f60a082019050610e1f5f830188610d59565b8181036020830152610e318187610d78565b9050610e406040830186610d59565b610e4d6060830185610db0565b8181036080830152610e5f8184610dbf565b90509695505050505050565b5f80fd5b5f80fd5b7f4e487b71000000000000000000000000000000000000000000000000000000005f52604160045260245ffd5b610ea982610bb7565b810181811067ffffffffffffffff82111715610ec857610ec7610e73565b5b80604052505050565b5f610eda610af7565b9050610ee68282610ea0565b919050565b5f67ffffffffffffffff821115610f0557610f04610e73565b5b610f0e82610bb7565b9050602081019050919050565b828183375f83830152505050565b5f610f3b610f3684610eeb565b610ed1565b905082815260208101848484011115610f5757610f56610e6f565b5b610f62848285610f1b565b509392505050565b5f82601f830112610f7e57610f7d610e6b565b5b8135610f8e848260208601610f29565b91505092915050565b60028110610fa3575f80fd5b50565b5f81359050610fb481610f97565b92915050565b5f805f805f805f60e0888a031215610fd557610fd4610b00565b5b5f610fe28a828b01610b27565b975050602088013567ffffffffffffffff81111561100357611002610b04565b5b61100f8a828b01610f6a565b96505060406110208a828b01610b27565b95505060606110318a828b01610b27565b945050608088013567ffffffffffffffff81111561105257611051610b04565b5b61105e8a828b01610f6a565b93505060a061106f8a828b01610b27565b92505060c06110808a828b01610fa6565b91505092959891949750929550565b5f81519050919050565b5f82825260208201905092915050565b5f819050602082019050919050565b5f60a083015f8301516110cd5f860182610b66565b50602083015184820360208601526110e58282610bc7565b91505060408301516110fa6040860182610b66565b50606083015161110d6060860182610c63565b50608083015184820360808601526111258282610c72565b9150508091505092915050565b5f61113d83836110b8565b905092915050565b5f602082019050919050565b5f61115b8261108f565b6111658185611099565b935083602082028501611177856110a9565b805f5b858110156111b257848403895281516111938582611132565b945061119e83611145565b925060208a0199505060018101905061117a565b50829750879550505050505092915050565b5f6020820190508181035f8301526111dc8184611151565b905092915050565b7f4e487b71000000000000000000000000000000000000000000000000000000005f52603260045260245ffd5b7f4e487b71000000000000000000000000000000000000000000000000000000005f52602260045260245ffd5b5f600282049050600182168061125557607f821691505b60208210810361126857611267611211565b5b50919050565b7f4e487b71000000000000000000000000000000000000000000000000000000005f52601160045260245ffd5b5f6112a582610b08565b91507fffffffffffffffffffffffffffffffffffffffffffffffffffffffffffffffff82036112d7576112d661126e565b5b600182019050919050565b5f819050815f5260205f209050919050565b5f6020601f8301049050919050565b5f82821b905092915050565b5f6008830261133e7fffffffffffffffffffffffffffffffffffffffffffffffffffffffffffffffff82611303565b6113488683611303565b95508019841693508086168417925050509392505050565b5f819050919050565b5f61138361137e61137984610b08565b611360565b610b08565b9050919050565b5f819050919050565b61139c83611369565b6113b06113a88261138a565b84845461130f565b825550505050565b5f90565b6113c46113b8565b6113cf818484611393565b505050565b5b818110156113f2576113e75f826113bc565b6001810190506113d5565b5050565b601f82111561143757611408816112e2565b611411846112f4565b81016020851015611420578190505b61143461142c856112f4565b8301826113d4565b50505b505050565b5f82821c905092915050565b5f6114575f198460080261143c565b1980831691505092915050565b5f61146f8383611448565b9150826002028217905092915050565b61148882610b75565b67ffffffffffffffff8111156114a1576114a0610e73565b5b6114ab825461123e565b6114b68282856113f6565b5f60209050601f8311600181146114e7575f84156114d5578287015190505b6114df8582611464565b865550611546565b601f1984166114f5866112e2565b5f5b8281101561151c578489015182556001820191506020850194506020810190506114f7565b868310156115395784890151611535601f891682611448565b8355505b6001600288020188555050505b505050505050565b5f60e0820190506115615f83018a610d59565b81810360208301526115738189610d78565b90506115826040830188610d59565b61158f6060830187610d59565b81810360808301526115a18186610d78565b90506115b060a0830185610d59565b6115bd60c0830184610db0565b9897505050505050505056fea2646970667358221220daf10b6a780d7c6e7bad66a05a27b713e054086b8a5cb39faf6046af82c2843c64736f6c63430008140033a26469706673582212201ada013aa03f78d0c75e167025e07958b079f83acb1a817862bb9e1c6dcb7d1364736f6c63430008140033",
    "immutableReferences": {},
    "source": "// SPDX-License-Identifier: MIT\n\npragma solidity ^0.8.0;\n\nimport \"./StudentNestedContract.sol\";\n\n\n\n\ncontract FactoryContact {\n\n    event ContractCreated(address newContract, uint256 timestamp);\n\n\n\n\n    StudentNestedContract[] public deployedContracts;\n\n\n\n\n    function createContract() public {\n\n        StudentNestedContract newContract = new StudentNestedContract();\n\n        deployedContracts.push(newContract);\n\n        emit ContractCreated(address(newContract), block.timestamp);\n\n    }\n\n\n\n\n    function getDeployedContracts() public view returns (StudentNestedContract[] memory) {\n\n        return deployedContracts;\n\n    }\n\n}",
    "sourcePath": "/Users/ravisatyam/Desktop/ravi/escrow-contract/contract_factory/contracts/FactoryContract.sol",
    "compiler": {
        "name": "solc",
        "version": "0.8.20+commit.a1b79de6.Emscripten.clang"
    },
    "schemaVersion": "3.4.14",
    "updatedAt": "2023-06-08T09:46:27.766Z",
    "devdoc": {
        "kind": "dev",
        "methods": {},
        "version": 1
    },
    "userdoc": {
        "kind": "user",
        "methods": {},
        "version": 1
    }
}