{
  "_format": "hh-sol-artifact-1",
  "contractName": "FactoryContract",
  "sourceName": "contracts/FactoryContract.sol",
  "abi": [
    {
      "anonymous": false,
      "inputs": [
        {
          "indexed": false,
          "internalType": "address",
          "name": "newContract",
          "type": "address"
        },
        {
          "indexed": false,
          "internalType": "uint256",
          "name": "timestamp",
          "type": "uint256"
        }
      ],
      "name": "ContractCreated",
      "type": "event"
    },
    {
      "inputs": [
        {
          "internalType": "uint256",
          "name": "_offset",
          "type": "uint256"
        },
        {
          "internalType": "uint256",
          "name": "_rollNo",
          "type": "uint256"
        },
        {
          "internalType": "string",
          "name": "_class",
          "type": "string"
        },
        {
          "internalType": "uint256",
          "name": "_fees",
          "type": "uint256"
        },
        {
          "internalType": "uint256",
          "name": "_id",
          "type": "uint256"
        },
        {
          "internalType": "string",
          "name": "_name",
          "type": "string"
        },
        {
          "internalType": "uint256",
          "name": "_marks",
          "type": "uint256"
        },
        {
          "internalType": "bool",
          "name": "_status",
          "type": "bool"
        }
      ],
      "name": "addStudentToContract",
      "outputs": [],
      "stateMutability": "nonpayable",
      "type": "function"
    },
    {
      "inputs": [],
      "name": "createContract",
      "outputs": [],
      "stateMutability": "nonpayable",
      "type": "function"
    },
    {
      "inputs": [
        {
          "internalType": "uint256",
          "name": "",
          "type": "uint256"
        }
      ],
      "name": "deployedContracts",
      "outputs": [
        {
          "internalType": "address",
          "name": "",
          "type": "address"
        }
      ],
      "stateMutability": "view",
      "type": "function"
    },
    {
      "inputs": [],
      "name": "getDeployedContracts",
      "outputs": [
        {
          "internalType": "address[]",
          "name": "contracts",
          "type": "address[]"
        }
      ],
      "stateMutability": "view",
      "type": "function"
    },
    {
      "inputs": [
        {
          "internalType": "uint256",
          "name": "_offset",
          "type": "uint256"
        }
      ],
      "name": "getStudents",
      "outputs": [
        {
          "components": [
            {
              "internalType": "uint256",
              "name": "id",
              "type": "uint256"
            },
            {
              "internalType": "string",
              "name": "name",
              "type": "string"
            },
            {
              "internalType": "uint256",
              "name": "marks",
              "type": "uint256"
            },
            {
              "internalType": "enum StudentNestedContract.Status",
              "name": "status",
              "type": "uint8"
            },
            {
              "components": [
                {
                  "internalType": "uint256",
                  "name": "rollNo",
                  "type": "uint256"
                },
                {
                  "internalType": "string",
                  "name": "class",
                  "type": "string"
                },
                {
                  "internalType": "uint256",
                  "name": "fees",
                  "type": "uint256"
                }
              ],
              "internalType": "struct StudentNestedContract.StudentRequirement",
              "name": "stdReq",
              "type": "tuple"
            }
          ],
          "internalType": "struct StudentNestedContract.StudentDetails[]",
          "name": "students",
          "type": "tuple[]"
        }
      ],
      "stateMutability": "view",
      "type": "function"
    }
  ],
  "bytecode": "0x608060405234801561001057600080fd5b5061196d806100206000396000f3fe608060405234801561001057600080fd5b50600436106100575760003560e01c8063412a5a6d1461005c57806375c2f8f014610066578063873647691461008f5780639ad1ee10146100a2578063aa9a068f146100cd575b600080fd5b6100646100e2565b005b61007961007436600461035e565b610196565b60405161008691906103e9565b60405180910390f35b61006461009d3660046105a0565b610225565b6100b56100b036600461035e565b6102c5565b6040516001600160a01b039091168152602001610086565b6100d56102ef565b604051610086919061064e565b60006040516100f090610351565b604051809103906000f08015801561010c573d6000803e3d6000fd5b50600080546001810182559080527f290decd9548b62a8d60345a988386fc84ba6bc95484008f6362f93160ef3e5630180546001600160a01b0319166001600160a01b038316908117909155604080519182524260208301529192507f1dc05c1d6a563dddb6c22082af72b54ec2f0207ceb55db5d13cdabc208f303a9910160405180910390a150565b6060600082815481106101ab576101ab61069b565b6000918252602082200154604080516302c2048160e61b815290516001600160a01b039092169263b0812040926004808401938290030181865afa1580156101f7573d6000803e3d6000fd5b505050506040513d6000823e601f3d908101601f1916820160405261021f9190810190610777565b92915050565b600088815481106102385761023861069b565b6000918252602090912001546001600160a01b031663a391da9a88888888888888610264576001610267565b60005b6040518863ffffffff1660e01b815260040161028997969594939291906108c3565b600060405180830381600087803b1580156102a357600080fd5b505af11580156102b7573d6000803e3d6000fd5b505050505050505050505050565b600081815481106102d557600080fd5b6000918252602090912001546001600160a01b0316905081565b6060600080548060200260200160405190810160405280929190818152602001828054801561034757602002820191906000526020600020905b81546001600160a01b03168152600190910190602001808311610329575b5050505050905090565b61101b8061091d83390190565b60006020828403121561037057600080fd5b5035919050565b60005b8381101561039257818101518382015260200161037a565b50506000910152565b600081518084526103b3816020860160208601610377565b601f01601f19169290920160200192915050565b600281106103e557634e487b7160e01b600052602160045260246000fd5b9052565b60006020808301818452808551808352604092508286019150828160051b87010184880160005b838110156104a457603f19898403018552815160a08151855288820151818a87015261043e8287018261039b565b915050878201518886015260608083015161045b828801826103c7565b50608080840151935086830381880152508251825289830151818b8401526104858284018261039b565b938a0151928a0192909252505094870194925090860190600101610410565b509098975050505050505050565b634e487b7160e01b600052604160045260246000fd5b60405160a0810167ffffffffffffffff811182821017156104eb576104eb6104b2565b60405290565b604051601f8201601f1916810167ffffffffffffffff8111828210171561051a5761051a6104b2565b604052919050565b600067ffffffffffffffff82111561053c5761053c6104b2565b50601f01601f191660200190565b600082601f83011261055b57600080fd5b813561056e61056982610522565b6104f1565b81815284602083860101111561058357600080fd5b816020850160208301376000918101602001919091529392505050565b600080600080600080600080610100898b0312156105bd57600080fd5b8835975060208901359650604089013567ffffffffffffffff808211156105e357600080fd5b6105ef8c838d0161054a565b975060608b0135965060808b0135955060a08b013591508082111561061357600080fd5b506106208b828c0161054a565b93505060c0890135915060e0890135801515811461063d57600080fd5b809150509295985092959890939650565b6020808252825182820181905260009190848201906040850190845b8181101561068f5783516001600160a01b03168352928401929184019160010161066a565b50909695505050505050565b634e487b7160e01b600052603260045260246000fd5b600082601f8301126106c257600080fd5b81516106d061056982610522565b8181528460208386010111156106e557600080fd5b6106f6826020830160208701610377565b949350505050565b60006060828403121561071057600080fd5b6040516060810167ffffffffffffffff8282108183111715610734576107346104b2565b8160405282935084518352602085015191508082111561075357600080fd5b50610760858286016106b1565b602083015250604083015160408201525092915050565b6000602080838503121561078a57600080fd5b825167ffffffffffffffff808211156107a257600080fd5b818501915085601f8301126107b657600080fd5b8151818111156107c8576107c86104b2565b8060051b6107d78582016104f1565b91825283810185019185810190898411156107f157600080fd5b86860192505b838310156108b65782518581111561080f5760008081fd5b860160a0818c03601f19018113156108275760008081fd5b61082f6104c8565b898301518152604080840151898111156108495760008081fd5b6108578f8d838801016106b1565b8c840152506060808501518284015260809150818501516002811061087c5760008081fd5b908301529183015191888311156108935760008081fd5b6108a18e8c858701016106fe565b908201528452505091860191908601906107f7565b9998505050505050505050565b87815260e0602082015260006108dc60e083018961039b565b87604084015286606084015282810360808401526108fa818761039b565b9150508360a083015261091060c08301846103c7565b9897505050505050505056fe608060405234801561001057600080fd5b50610ffb806100206000396000f3fe608060405234801561001057600080fd5b50600436106100575760003560e01c806386af459b1461005c578063a391da9a14610085578063b08120401461009a578063c4dc356e146100af578063d5fb052f146100c2575b600080fd5b61006f61006a366004610ac4565b6100e6565b60405161007c9190610bec565b60405180910390f35b610098610093366004610ca9565b610305565b005b6100a2610531565b60405161007c9190610d4c565b61006f6100bd366004610ac4565b610723565b6100d56100d0366004610ac4565b6108dc565b60405161007c959493929190610dae565b6100ee610a63565b60005b6000548110156102ff57826000828154811061010f5761010f610df8565b906000526020600020906007020160000154036102ed576000818154811061013957610139610df8565b90600052602060002090600702016040518060a00160405290816000820154815260200160018201805461016c90610e0e565b80601f016020809104026020016040519081016040528092919081815260200182805461019890610e0e565b80156101e55780601f106101ba576101008083540402835291602001916101e5565b820191906000526020600020905b8154815290600101906020018083116101c857829003601f168201915b505050918352505060028201546020820152600382015460409091019060ff16600181111561021657610216610b23565b600181111561022757610227610b23565b8152602001600482016040518060600160405290816000820154815260200160018201805461025590610e0e565b80601f016020809104026020016040519081016040528092919081815260200182805461028190610e0e565b80156102ce5780601f106102a3576101008083540402835291602001916102ce565b820191906000526020600020905b8154815290600101906020018083116102b157829003601f168201915b5050505050815260200160028201548152505081525050915050919050565b806102f781610e42565b9150506100f1565b50919050565b61032960405180606001604052806000815260200160608152602001600081525090565b8781526020810187905260408101869052610342610a63565b85815260208101859052604081018490526060810183600181111561036957610369610b23565b9081600181111561037c5761037c610b23565b9052506080810182905260008054600181018255908052815160079091027f290decd9548b62a8d60345a988386fc84ba6bc95484008f6362f93160ef3e563810191825560208301518392917f290decd9548b62a8d60345a988386fc84ba6bc95484008f6362f93160ef3e56401906103f59082610eb8565b5060408201516002820155606082015160038201805460ff19166001838181111561042257610422610b23565b02179055506080820151805160048301908155602082015160058401906104499082610eb8565b506040918201516002909101556000898152600160208181529290912085518155918501518594509192508201906104819082610eb8565b5060408201516002820155606082015160038201805460ff1916600183818111156104ae576104ae610b23565b02179055506080820151805160048301908155602082015160058401906104d59082610eb8565b50604091820151600290910155517f2c945072381104ba8de7855c6016963ab4cc948ca4822619e42f1e38631e6bbd925061051e91508b908b908b908b908b908b908b90610f78565b60405180910390a1505050505050505050565b60606000805480602002602001604051908101604052809291908181526020016000905b8282101561071a57838290600052602060002090600702016040518060a00160405290816000820154815260200160018201805461059290610e0e565b80601f01602080910402602001604051908101604052809291908181526020018280546105be90610e0e565b801561060b5780601f106105e05761010080835404028352916020019161060b565b820191906000526020600020905b8154815290600101906020018083116105ee57829003601f168201915b505050918352505060028201546020820152600382015460409091019060ff16600181111561063c5761063c610b23565b600181111561064d5761064d610b23565b8152602001600482016040518060600160405290816000820154815260200160018201805461067b90610e0e565b80601f01602080910402602001604051908101604052809291908181526020018280546106a790610e0e565b80156106f45780601f106106c9576101008083540402835291602001916106f4565b820191906000526020600020905b8154815290600101906020018083116106d757829003601f168201915b505050505081526020016002820154815250508152505081526020019060010190610555565b50505050905090565b61072b610a63565b600082815260016020818152604092839020835160a081019094528054845291820180549184019161075c90610e0e565b80601f016020809104026020016040519081016040528092919081815260200182805461078890610e0e565b80156107d55780601f106107aa576101008083540402835291602001916107d5565b820191906000526020600020905b8154815290600101906020018083116107b857829003601f168201915b505050918352505060028201546020820152600382015460409091019060ff16600181111561080657610806610b23565b600181111561081757610817610b23565b8152602001600482016040518060600160405290816000820154815260200160018201805461084590610e0e565b80601f016020809104026020016040519081016040528092919081815260200182805461087190610e0e565b80156108be5780601f10610893576101008083540402835291602001916108be565b820191906000526020600020905b8154815290600101906020018083116108a157829003601f168201915b50505050508152602001600282015481525050815250509050919050565b600081815481106108ec57600080fd5b6000918252602090912060079091020180546001820180549193509061091190610e0e565b80601f016020809104026020016040519081016040528092919081815260200182805461093d90610e0e565b801561098a5780601f1061095f5761010080835404028352916020019161098a565b820191906000526020600020905b81548152906001019060200180831161096d57829003601f168201915b5050505050908060020154908060030160009054906101000a900460ff169080600401604051806060016040529081600082015481526020016001820180546109d290610e0e565b80601f01602080910402602001604051908101604052809291908181526020018280546109fe90610e0e565b8015610a4b5780601f10610a2057610100808354040283529160200191610a4b565b820191906000526020600020905b815481529060010190602001808311610a2e57829003601f168201915b50505050508152602001600282015481525050905085565b6040518060a0016040528060008152602001606081526020016000815260200160006001811115610a9657610a96610b23565b8152602001610abf60405180606001604052806000815260200160608152602001600081525090565b905290565b600060208284031215610ad657600080fd5b5035919050565b6000815180845260005b81811015610b0357602081850181015186830182015201610ae7565b506000602082860101526020601f19601f83011685010191505092915050565b634e487b7160e01b600052602160045260246000fd5b60028110610b5757634e487b7160e01b600052602160045260246000fd5b9052565b805182526000602082015160606020850152610b7a6060850182610add565b604093840151949093019390935250919050565b805182526000602082015160a06020850152610bad60a0850182610add565b9050604083015160408501526060830151610bcb6060860182610b39565b5060808301518482036080860152610be38282610b5b565b95945050505050565b602081526000610bff6020830184610b8e565b9392505050565b634e487b7160e01b600052604160045260246000fd5b600082601f830112610c2d57600080fd5b813567ffffffffffffffff80821115610c4857610c48610c06565b604051601f8301601f19908116603f01168101908282118183101715610c7057610c70610c06565b81604052838152866020858801011115610c8957600080fd5b836020870160208301376000602085830101528094505050505092915050565b600080600080600080600060e0888a031215610cc457600080fd5b87359650602088013567ffffffffffffffff80821115610ce357600080fd5b610cef8b838c01610c1c565b975060408a0135965060608a0135955060808a0135915080821115610d1357600080fd5b50610d208a828b01610c1c565b93505060a0880135915060c088013560028110610d3c57600080fd5b8091505092959891949750929550565b6000602080830181845280855180835260408601915060408160051b870101925083870160005b82811015610da157603f19888603018452610d8f858351610b8e565b94509285019290850190600101610d73565b5092979650505050505050565b85815260a060208201526000610dc760a0830187610add565b856040840152610dda6060840186610b39565b8281036080840152610dec8185610b5b565b98975050505050505050565b634e487b7160e01b600052603260045260246000fd5b600181811c90821680610e2257607f821691505b6020821081036102ff57634e487b7160e01b600052602260045260246000fd5b600060018201610e6257634e487b7160e01b600052601160045260246000fd5b5060010190565b601f821115610eb357600081815260208120601f850160051c81016020861015610e905750805b601f850160051c820191505b81811015610eaf57828155600101610e9c565b5050505b505050565b815167ffffffffffffffff811115610ed257610ed2610c06565b610ee681610ee08454610e0e565b84610e69565b602080601f831160018114610f1b5760008415610f035750858301515b600019600386901b1c1916600185901b178555610eaf565b600085815260208120601f198616915b82811015610f4a57888601518255948401946001909101908401610f2b565b5085821015610f685787850151600019600388901b60f8161c191681555b5050505050600190811b01905550565b87815260e060208201526000610f9160e0830189610add565b8760408401528660608401528281036080840152610faf8187610add565b9150508360a0830152610dec60c0830184610b3956fea264697066735822122000be43c98784a7dd3f4fb51e095d8647c4ec40ef53775403ad3c4740e16ce2b364736f6c63430008120033a2646970667358221220cd91454c3f750ddc5e5c21e33c789e88e876826af26876fcdeb4b640317cee3e64736f6c63430008120033",
  "linkReferences": {},
  "deployedLinkReferences": {}
}